{
  "contractName": "SupplyChain",
  "abi": [
    {
      "constant": false,
      "inputs": [
        {
          "name": "description",
          "type": "string"
        },
        {
          "name": "price",
          "type": "uint256"
        }
      ],
      "name": "placeOrder",
      "outputs": [],
      "payable": true,
      "stateMutability": "payable",
      "type": "function"
    },
    {
      "constant": false,
      "inputs": [
        {
          "name": "initialLocation",
          "type": "string"
        },
        {
          "name": "statusMessage",
          "type": "string"
        }
      ],
      "name": "acceptOrder",
      "outputs": [],
      "payable": false,
      "stateMutability": "nonpayable",
      "type": "function"
    },
    {
      "constant": false,
      "inputs": [
        {
          "name": "statusMessage",
          "type": "string"
        }
      ],
      "name": "rejectOrder",
      "outputs": [],
      "payable": true,
      "stateMutability": "payable",
      "type": "function"
    },
    {
      "constant": false,
      "inputs": [
        {
          "name": "shippingEntity",
          "type": "string"
        },
        {
          "name": "shippingEntityAddress",
          "type": "address"
        },
        {
          "name": "statusMessage",
          "type": "string"
        }
      ],
      "name": "startShipping",
      "outputs": [],
      "payable": false,
      "stateMutability": "nonpayable",
      "type": "function"
    },
    {
      "constant": false,
      "inputs": [
        {
          "name": "shippingEntity",
          "type": "string"
        },
        {
          "name": "shippingEntityAddress",
          "type": "address"
        },
        {
          "name": "statusMessage",
          "type": "string"
        }
      ],
      "name": "updateShipping",
      "outputs": [],
      "payable": false,
      "stateMutability": "nonpayable",
      "type": "function"
    },
    {
      "constant": false,
      "inputs": [
        {
          "name": "statusMessage",
          "type": "string"
        }
      ],
      "name": "confirmReceivedByBuyer",
      "outputs": [],
      "payable": true,
      "stateMutability": "payable",
      "type": "function"
    },
    {
      "constant": true,
      "inputs": [],
      "name": "getOrderInfo",
      "outputs": [
        {
          "name": "",
          "type": "string"
        },
        {
          "name": "",
          "type": "string"
        },
        {
          "name": "",
          "type": "string"
        },
        {
          "name": "",
          "type": "string"
        },
        {
          "name": "",
          "type": "uint256"
        }
      ],
      "payable": false,
      "stateMutability": "view",
      "type": "function"
    },
    {
      "constant": true,
      "inputs": [],
      "name": "getOrderStatus",
      "outputs": [
        {
          "name": "",
          "type": "string"
        }
      ],
      "payable": false,
      "stateMutability": "view",
      "type": "function"
    },
    {
      "constant": true,
      "inputs": [],
      "name": "getShippingStatus",
      "outputs": [
        {
          "name": "",
          "type": "string"
        }
      ],
      "payable": false,
      "stateMutability": "view",
      "type": "function"
    },
    {
      "constant": true,
      "inputs": [],
      "name": "getShippingEntitiesCount",
      "outputs": [
        {
          "name": "",
          "type": "uint256"
        }
      ],
      "payable": false,
      "stateMutability": "view",
      "type": "function"
    },
    {
      "constant": true,
      "inputs": [
        {
          "name": "index",
          "type": "uint256"
        }
      ],
      "name": "getShippingEntity",
      "outputs": [
        {
          "name": "",
          "type": "string"
        }
      ],
      "payable": false,
      "stateMutability": "view",
      "type": "function"
    },
    {
      "constant": true,
      "inputs": [
        {
          "name": "index",
          "type": "uint256"
        }
      ],
      "name": "getTimestamp",
      "outputs": [
        {
          "name": "",
          "type": "uint256"
        }
      ],
      "payable": false,
      "stateMutability": "view",
      "type": "function"
    },
    {
      "constant": true,
      "inputs": [],
      "name": "getCurrentHolder",
      "outputs": [
        {
          "name": "",
          "type": "string"
        }
      ],
      "payable": false,
      "stateMutability": "view",
      "type": "function"
    },
    {
      "constant": false,
      "inputs": [],
      "name": "refund",
      "outputs": [],
      "payable": true,
      "stateMutability": "payable",
      "type": "function"
    },
    {
      "constant": false,
      "inputs": [],
      "name": "closeOrder",
      "outputs": [],
      "payable": false,
      "stateMutability": "nonpayable",
      "type": "function"
    }
  ],
  "bytecode": "0x60806040526040805190810160405280600b81526020017f4e6f742053746172746564000000000000000000000000000000000000000000815250600f908051906020019062000051929190620000b4565b506040805190810160405280600281526020017f4f4b000000000000000000000000000000000000000000000000000000000000815250601090805190602001906200009f929190620000b4565b50348015620000ad57600080fd5b5062000163565b828054600181600116156101000203166002900490600052602060002090601f016020900481019282601f10620000f757805160ff191683800117855562000128565b8280016001018555821562000128579182015b82811115620001275782518255916020019190600101906200010a565b5b5090506200013791906200013b565b5090565b6200016091905b808211156200015c57600081600090555060010162000142565b5090565b90565b61182e80620001736000396000f3006080604052600436106100db576000357c0100000000000000000000000000000000000000000000000000000000900463ffffffff16806301efb6c8146100e057806310f26622146102bb5780631c4e17611461034b5780632d8dcef1146103a75780633c3d790d146103be578063590e1ae31461048d5780638b7c9a871461049757806391d8857214610546578063a1b6e83614610615578063a5de0fc11461067b578063b633620c146106d7578063d1bb58ec14610718578063d5139104146107a8578063d81d26ae1461084e578063fbb57d2e146108de575b600080fd5b3480156100ec57600080fd5b506100f5610909565b604051808060200180602001806020018060200186815260200185810385528a818151815260200191508051906020019080838360005b8381101561014757808201518184015260208101905061012c565b50505050905090810190601f1680156101745780820380516001836020036101000a031916815260200191505b50858103845289818151815260200191508051906020019080838360005b838110156101ad578082015181840152602081019050610192565b50505050905090810190601f1680156101da5780820380516001836020036101000a031916815260200191505b50858103835288818151815260200191508051906020019080838360005b838110156102135780820151818401526020810190506101f8565b50505050905090810190601f1680156102405780820380516001836020036101000a031916815260200191505b50858103825287818151815260200191508051906020019080838360005b8381101561027957808201518184015260208101905061025e565b50505050905090810190601f1680156102a65780820380516001836020036101000a031916815260200191505b50995050505050505050505060405180910390f35b3480156102c757600080fd5b506102d0610b9c565b6040518080602001828103825283818151815260200191508051906020019080838360005b838110156103105780820151818401526020810190506102f5565b50505050905090810190601f16801561033d5780820380516001836020036101000a031916815260200191505b509250505060405180910390f35b6103a5600480360381019080803590602001908201803590602001908080601f0160208091040260200160405190810160405280939291908181526020018383808284378201915050505050509192919290505050610c85565b005b3480156103b357600080fd5b506103bc610e5f565b005b3480156103ca57600080fd5b5061048b600480360381019080803590602001908201803590602001908080601f0160208091040260200160405190810160405280939291908181526020018383808284378201915050505050509192919290803573ffffffffffffffffffffffffffffffffffffffff169060200190929190803590602001908201803590602001908080601f0160208091040260200160405190810160405280939291908181526020018383808284378201915050505050509192919290505050610ead565b005b610495610fc2565b005b3480156104a357600080fd5b50610544600480360381019080803590602001908201803590602001908080601f0160208091040260200160405190810160405280939291908181526020018383808284378201915050505050509192919290803590602001908201803590602001908080601f0160208091040260200160405190810160405280939291908181526020018383808284378201915050505050509192919290505050610fc4565b005b34801561055257600080fd5b50610613600480360381019080803590602001908201803590602001908080601f0160208091040260200160405190810160405280939291908181526020018383808284378201915050505050509192919290803573ffffffffffffffffffffffffffffffffffffffff169060200190929190803590602001908201803590602001908080601f0160208091040260200160405190810160405280939291908181526020018383808284378201915050505050509192919290505050611166565b005b610679600480360381019080803590602001908201803590602001908080601f01602080910402602001604051908101604052809392919081815260200183838082843782019150505050505091929192908035906020019092919050505061135f565b005b6106d5600480360381019080803590602001908201803590602001908080601f0160208091040260200160405190810160405280939291908181526020018383808284378201915050505050509192919290505050611419565b005b3480156106e357600080fd5b50610702600480360381019080803590602001909291905050506114a7565b6040518082815260200191505060405180910390f35b34801561072457600080fd5b5061072d6114ca565b6040518080602001828103825283818151815260200191508051906020019080838360005b8381101561076d578082015181840152602081019050610752565b50505050905090810190601f16801561079a5780820380516001836020036101000a031916815260200191505b509250505060405180910390f35b3480156107b457600080fd5b506107d36004803603810190808035906020019092919050505061156c565b6040518080602001828103825283818151815260200191508051906020019080838360005b838110156108135780820151818401526020810190506107f8565b50505050905090810190601f1680156108405780820380516001836020036101000a031916815260200191505b509250505060405180910390f35b34801561085a57600080fd5b50610863611627565b6040518080602001828103825283818151815260200191508051906020019080838360005b838110156108a3578082015181840152602081019050610888565b50505050905090810190601f1680156108d05780820380516001836020036101000a031916815260200191505b509250505060405180910390f35b3480156108ea57600080fd5b506108f36116c9565b6040518082815260200191505060405180910390f35b6060806060806000806001600a600b600c54848054600181600116156101000203166002900480601f0160208091040260200160405190810160405280929190818152602001828054600181600116156101000203166002900480156109b05780601f10610985576101008083540402835291602001916109b0565b820191906000526020600020905b81548152906001019060200180831161099357829003601f168201915b50505050509450838054600181600116156101000203166002900480601f016020809104026020016040519081016040528092919081815260200182805460018160011615610100020316600290048015610a4c5780601f10610a2157610100808354040283529160200191610a4c565b820191906000526020600020905b815481529060010190602001808311610a2f57829003601f168201915b50505050509350828054600181600116156101000203166002900480601f016020809104026020016040519081016040528092919081815260200182805460018160011615610100020316600290048015610ae85780601f10610abd57610100808354040283529160200191610ae8565b820191906000526020600020905b815481529060010190602001808311610acb57829003601f168201915b50505050509250818054600181600116156101000203166002900480601f016020809104026020016040519081016040528092919081815260200182805460018160011615610100020316600290048015610b845780601f10610b5957610100808354040283529160200191610b84565b820191906000526020600020905b815481529060010190602001808311610b6757829003601f168201915b50505050509150945094509450945094509091929394565b6060600060028054905090506000811115610c6d57600260018203815481101515610bc357fe5b906000526020600020018054600181600116156101000203166002900480601f016020809104026020016040519081016040528092919081815260200182805460018160011615610100020316600290048015610c615780601f10610c3657610100808354040283529160200191610c61565b820191906000526020600020905b815481529060010190602001808311610c4457829003601f168201915b50505050509150610c81565b602060405190810160405280600081525091505b5090565b6003429080600181540180825580915050906001820390600052602060002001600090919290919091505550600260009080600181540180825580915050906001820390600052602060002001600090919290919091509080546001816001161561010002031660029004610cfb9291906116d6565b50506008600660009054906101000a900473ffffffffffffffffffffffffffffffffffffffff1690806001815401808255809150509060018203906000526020600020016000909192909190916101000a81548173ffffffffffffffffffffffffffffffffffffffff021916908373ffffffffffffffffffffffffffffffffffffffff160217905550506005819080600181540180825580915050906001820390600052602060002001600090919290919091509080519060200190610dc292919061175d565b50506040805190810160405280601181526020017f5368697070696e672046696e6973686564000000000000000000000000000000815250600d9080519060200190610e0f92919061175d565b506040805190810160405280601581526020017f436f6e6669726d6564205375636365737366756c6c0000000000000000000000815250600f9080519060200190610e5b92919061175d565b5050565b6040805190810160405280600681526020017f436c6f7365640000000000000000000000000000000000000000000000000000815250600d9080519060200190610eaa92919061175d565b50565b6005819080600181540180825580915050906001820390600052602060002001600090919290919091509080519060200190610eea92919061175d565b505060034290806001815401808255809150509060018203906000526020600020016000909192909190915055506002839080600181540180825580915050906001820390600052602060002001600090919290919091509080519060200190610f5592919061175d565b505060088290806001815401808255809150509060018203906000526020600020016000909192909190916101000a81548173ffffffffffffffffffffffffffffffffffffffff021916908373ffffffffffffffffffffffffffffffffffffffff16021790555050505050565b565b6040805190810160405280600881526020017f4163636570746564000000000000000000000000000000000000000000000000815250600d908051906020019061100f92919061175d565b50600482908060018154018082558091505090600182039060005260206000200160009091929091909150908051906020019061104d92919061175d565b5050600581908060018154018082558091505090600182039060005260206000200160009091929091909150908051906020019061108c92919061175d565b50506002600190806001815401808255809150509060018203906000526020600020016000909192909190915090805460018160011615610100020316600290046110d89291906116d6565b50506008600760009054906101000a900473ffffffffffffffffffffffffffffffffffffffff1690806001815401808255809150509060018203906000526020600020016000909192909190916101000a81548173ffffffffffffffffffffffffffffffffffffffff021916908373ffffffffffffffffffffffffffffffffffffffff160217905550505050565b6040805190810160405280600481526020017f3938373600000000000000000000000000000000000000000000000000000000815250600e90805190602001906111b192919061175d565b506040805190810160405280600b81526020017f496e2050726f6772657373000000000000000000000000000000000000000000815250600f90805190602001906111fd92919061175d565b506040805190810160405280601481526020017f5368697070696e6720496e2050726f6772657373000000000000000000000000815250600d908051906020019061124992919061175d565b50600581908060018154018082558091505090600182039060005260206000200160009091929091909150908051906020019061128792919061175d565b5050600342908060018154018082558091505090600182039060005260206000200160009091929091909150555060028390806001815401808255809150509060018203906000526020600020016000909192909190915090805190602001906112f292919061175d565b505060088290806001815401808255809150509060018203906000526020600020016000909192909190916101000a81548173ffffffffffffffffffffffffffffffffffffffff021916908373ffffffffffffffffffffffffffffffffffffffff16021790555050505050565b81600b908051906020019061137592919061175d565b5080600c819055506040805190810160405280600681526020017f506c616365640000000000000000000000000000000000000000000000000000815250600d90805190602001906113c892919061175d565b506040805190810160405280600481526020017f3132333400000000000000000000000000000000000000000000000000000000815250600a908051906020019061141492919061175d565b505050565b6040805190810160405280600881526020017f52656a6563746564000000000000000000000000000000000000000000000000815250600d908051906020019061146492919061175d565b5060058190806001815401808255809150509060018203906000526020600020016000909192909190915090805190602001906114a292919061175d565b505050565b60006003828154811015156114b857fe5b90600052602060002001549050919050565b6060600f8054600181600116156101000203166002900480601f0160208091040260200160405190810160405280929190818152602001828054600181600116156101000203166002900480156115625780601f1061153757610100808354040283529160200191611562565b820191906000526020600020905b81548152906001019060200180831161154557829003601f168201915b5050505050905090565b606060028281548110151561157d57fe5b906000526020600020018054600181600116156101000203166002900480601f01602080910402602001604051908101604052809291908181526020018280546001816001161561010002031660029004801561161b5780601f106115f05761010080835404028352916020019161161b565b820191906000526020600020905b8154815290600101906020018083116115fe57829003601f168201915b50505050509050919050565b6060600d8054600181600116156101000203166002900480601f0160208091040260200160405190810160405280929190818152602001828054600181600116156101000203166002900480156116bf5780601f10611694576101008083540402835291602001916116bf565b820191906000526020600020905b8154815290600101906020018083116116a257829003601f168201915b5050505050905090565b6000600280549050905090565b828054600181600116156101000203166002900490600052602060002090601f016020900481019282601f1061170f578054855561174c565b8280016001018555821561174c57600052602060002091601f016020900482015b8281111561174b578254825591600101919060010190611730565b5b50905061175991906117dd565b5090565b828054600181600116156101000203166002900490600052602060002090601f016020900481019282601f1061179e57805160ff19168380011785556117cc565b828001600101855582156117cc579182015b828111156117cb5782518255916020019190600101906117b0565b5b5090506117d991906117dd565b5090565b6117ff91905b808211156117fb5760008160009055506001016117e3565b5090565b905600a165627a7a7230582067dfc06c1d02bd5ed2d92d16b7d4dceae2d5720746535b7ea66baed54037fe970029",
  "source": "pragma solidity ^0.4.6;\r\n\r\ncontract SupplyChain\r\n{\r\n    string buyer;\r\n    string seller;\r\n    string[] shippingEntities;\r\n    uint256[] timestamps;\r\n    \r\n    string[] locations;\r\n    string[] statusMessages;\r\n\r\n    address buyerAddress;\r\n    address sellerAddress;\r\n    address[] shippingEntitiesAddresses;\r\n\r\n    address temporaryMoneyStorageAddress; //set default value    \r\n\r\n    string orderNumber;\r\n    string orderDescription;\r\n    uint orderPrice;\r\n    string orderStatus; // Placed, Accepted, Rejected, ShippingInProgress, ShippingFinished, Closed\r\n\r\n    string shippingNumber;\r\n    string shippingStatus = \"Not Started\"; // NotStarted (default), InProgress, Cancelled, ReplacedByNewShipping, ConfirmedSuccessfull\r\n\r\n    string packageStatus = \"OK\"; // OK (default), Lost, Damaged\r\n\r\n    function placeOrder(string description, uint price) public payable {\r\n\r\n        orderDescription = description;\r\n        orderPrice = price;\r\n        orderStatus = \"Placed\";\r\n        orderNumber = \"1234\"; // some random number\r\n\r\n        // send money from buyerAddress to temporaryMoneyStorageAddress\r\n\r\n    }\r\n\r\n    function acceptOrder(string initialLocation, string statusMessage) public {\r\n\r\n        orderStatus = \"Accepted\";\r\n        locations.push(initialLocation);\r\n        statusMessages.push(statusMessage);\r\n        shippingEntities.push(seller);\r\n        shippingEntitiesAddresses.push(sellerAddress);\r\n\r\n    }\r\n\r\n    function rejectOrder(string statusMessage) public payable {\r\n\r\n        orderStatus = \"Rejected\";\r\n        statusMessages.push(statusMessage);\r\n\r\n        // return money from temporaryMoneyStorageAddress to buyerAddress\r\n\r\n    }\r\n\r\n    function startShipping(string shippingEntity, address shippingEntityAddress, string statusMessage) public {\r\n\r\n        shippingNumber = \"9876\"; // some random number\r\n        shippingStatus = \"In Progress\";\r\n        orderStatus = \"Shipping In Progress\";\r\n        statusMessages.push(statusMessage);\r\n        timestamps.push(now);\r\n        shippingEntities.push(shippingEntity);\r\n        shippingEntitiesAddresses.push(shippingEntityAddress);\r\n\r\n    }\r\n\r\n    function updateShipping(string shippingEntity, address shippingEntityAddress, string statusMessage) public {\r\n\r\n        statusMessages.push(statusMessage);\r\n        timestamps.push(now);\r\n        shippingEntities.push(shippingEntity);\r\n        shippingEntitiesAddresses.push(shippingEntityAddress);\r\n\r\n    }\r\n\r\n    function confirmReceivedByBuyer(string statusMessage) public payable {\r\n\r\n        timestamps.push(now);\r\n        shippingEntities.push(buyer);\r\n        shippingEntitiesAddresses.push(buyerAddress);\r\n        statusMessages.push(statusMessage);\r\n        orderStatus = \"Shipping Finished\";\r\n        shippingStatus = \"Confirmed Successfull\";\r\n\r\n        // send money from temporaryMoneyStorageAddress to sellerAddress\r\n\r\n    }\r\n\r\n    function getOrderInfo() public view returns (string, string, string, string, uint) {\r\n\r\n        return (buyer, seller, orderNumber, orderDescription, orderPrice);\r\n\r\n    }\r\n\r\n    function getOrderStatus() public view returns (string) {\r\n\r\n        return orderStatus;\r\n\r\n    }\r\n\r\n    function getShippingStatus() public view returns (string) {\r\n\r\n        return shippingStatus;\r\n\r\n    }\r\n\r\n    function getShippingEntitiesCount() public view returns (uint) {\r\n\r\n        return shippingEntities.length;\r\n\r\n    }\r\n\r\n    function getShippingEntity(uint index) public view returns (string) {\r\n        \r\n        return shippingEntities[index];\r\n\r\n    }\r\n\r\n    function getTimestamp(uint index) public view returns (uint256) {\r\n\r\n        return timestamps[index];\r\n\r\n    }\r\n\r\n    function getCurrentHolder() public view returns (string) {\r\n\r\n        uint shippingEntitiesCount = shippingEntities.length;\r\n        if (shippingEntitiesCount > 0) {\r\n            return shippingEntities[shippingEntitiesCount - 1];\r\n        }\r\n        else {\r\n            return \"\";\r\n        }\r\n        \r\n    }\r\n\r\n    function refund() public payable {\r\n\r\n        // send money from temporaryMoneyStorageAddress to buyer\r\n\r\n    }\r\n\r\n    function closeOrder() public {\r\n\r\n        orderStatus = \"Closed\";\r\n\r\n    }\r\n\r\n}",
  "sourcePath": "C:\\Projects\\BlockchainDemo\\contracts\\SupplyChain.sol",
  "compiler": {
    "name": "solc",
    "version": "0.4.24+commit.e67f0147.Emscripten.clang"
  },
  "schemaVersion": "2.0.1",
  "updatedAt": "2018-09-24T11:11:17.110Z"
}